{
  "contractName": "JobManager",
  "abi": [
    {
      "inputs": [
        {
          "internalType": "address",
          "name": "tokenAddress",
          "type": "address"
        }
      ],
      "stateMutability": "nonpayable",
      "type": "constructor"
    },
    {
      "inputs": [],
      "name": "admin",
      "outputs": [
        {
          "internalType": "address",
          "name": "",
          "type": "address"
        }
      ],
      "stateMutability": "view",
      "type": "function"
    },
    {
      "inputs": [],
      "name": "token",
      "outputs": [
        {
          "internalType": "contract IncentiveToken",
          "name": "",
          "type": "address"
        }
      ],
      "stateMutability": "view",
      "type": "function"
    },
    {
      "inputs": [
        {
          "internalType": "address",
          "name": "worker",
          "type": "address"
        },
        {
          "internalType": "uint256",
          "name": "jobComplexity",
          "type": "uint256"
        }
      ],
      "name": "completeJob",
      "outputs": [],
      "stateMutability": "nonpayable",
      "type": "function"
    }
  ],
  "bytecode": "0x608060405234801561000f575f80fd5b5060405161062f38038061062f83398181016040528101906100319190610114565b805f806101000a81548173ffffffffffffffffffffffffffffffffffffffff021916908373ffffffffffffffffffffffffffffffffffffffff1602179055503360015f6101000a81548173ffffffffffffffffffffffffffffffffffffffff021916908373ffffffffffffffffffffffffffffffffffffffff1602179055505061013f565b5f80fd5b5f73ffffffffffffffffffffffffffffffffffffffff82169050919050565b5f6100e3826100ba565b9050919050565b6100f3816100d9565b81146100fd575f80fd5b50565b5f8151905061010e816100ea565b92915050565b5f60208284031215610129576101286100b6565b5b5f61013684828501610100565b91505092915050565b6104e38061014c5f395ff3fe608060405234801561000f575f80fd5b506004361061003f575f3560e01c8063ae1c45a114610043578063f851a4401461005f578063fc0c546a1461007d575b5f80fd5b61005d600480360381019061005891906102b7565b61009b565b005b6100676101c2565b6040516100749190610304565b60405180910390f35b6100856101e7565b6040516100929190610378565b60405180910390f35b60015f9054906101000a900473ffffffffffffffffffffffffffffffffffffffff1673ffffffffffffffffffffffffffffffffffffffff163373ffffffffffffffffffffffffffffffffffffffff161461012a576040517f08c379a0000000000000000000000000000000000000000000000000000000008152600401610121906103eb565b60405180910390fd5b5f6101348261020a565b90505f8054906101000a900473ffffffffffffffffffffffffffffffffffffffff1673ffffffffffffffffffffffffffffffffffffffff166340c10f1984836040518363ffffffff1660e01b8152600401610190929190610418565b5f604051808303815f87803b1580156101a7575f80fd5b505af11580156101b9573d5f803e3d5ffd5b50505050505050565b60015f9054906101000a900473ffffffffffffffffffffffffffffffffffffffff1681565b5f8054906101000a900473ffffffffffffffffffffffffffffffffffffffff1681565b5f670de0b6b3a76400008261021f919061046c565b9050919050565b5f80fd5b5f73ffffffffffffffffffffffffffffffffffffffff82169050919050565b5f6102538261022a565b9050919050565b61026381610249565b811461026d575f80fd5b50565b5f8135905061027e8161025a565b92915050565b5f819050919050565b61029681610284565b81146102a0575f80fd5b50565b5f813590506102b18161028d565b92915050565b5f80604083850312156102cd576102cc610226565b5b5f6102da85828601610270565b92505060206102eb858286016102a3565b9150509250929050565b6102fe81610249565b82525050565b5f6020820190506103175f8301846102f5565b92915050565b5f819050919050565b5f61034061033b6103368461022a565b61031d565b61022a565b9050919050565b5f61035182610326565b9050919050565b5f61036282610347565b9050919050565b61037281610358565b82525050565b5f60208201905061038b5f830184610369565b92915050565b5f82825260208201905092915050565b7f4f6e6c792061646d696e2063616e20636f6d706c657465206a6f6273000000005f82015250565b5f6103d5601c83610391565b91506103e0826103a1565b602082019050919050565b5f6020820190508181035f830152610402816103c9565b9050919050565b61041281610284565b82525050565b5f60408201905061042b5f8301856102f5565b6104386020830184610409565b9392505050565b7f4e487b71000000000000000000000000000000000000000000000000000000005f52601160045260245ffd5b5f61047682610284565b915061048183610284565b925082820261048f81610284565b915082820484148315176104a6576104a561043f565b5b509291505056fea2646970667358221220a78f17015ae7f8c10151d86e0febc4fc081d3165a6dc80c16b18d0ceb0f5688964736f6c63430008150033",
  "immutableReferences": {},
  "source": "// SPDX-License-Identifier: MIT\npragma solidity ^0.8.0;\n\nimport \"./IncentiveToken.sol\";\n\ncontract JobManager {\n    IncentiveToken public token;\n    address public admin;\n\n    constructor(address tokenAddress) {\n        token = IncentiveToken(tokenAddress);\n        admin = msg.sender;\n    }\n\n    function completeJob(address worker, uint256 jobComplexity) public {\n        require(msg.sender == admin, \"Only admin can complete jobs\");\n        uint256 reward = calculateReward(jobComplexity);\n        token.mint(worker, reward);\n    }\n\n    function calculateReward(uint256 complexity) private pure returns (uint256) {\n        return complexity * 1 ether;  // 1 ITK per complexity point\n    }\n}\n",
  "sourcePath": "C:\\Users\\HP\\Documents\\Zeplin\\token-project\\contracts\\JobManager.sol",
  "compiler": {
    "name": "solc",
    "version": "0.8.21+commit.d9974bed.Emscripten.clang"
  },
  "schemaVersion": "3.4.16",
  "updatedAt": "2024-04-17T02:52:00.526Z",
  "devdoc": {
    "kind": "dev",
    "methods": {},
    "version": 1
  },
  "userdoc": {
    "kind": "user",
    "methods": {},
    "version": 1
  }
}